{
  "contractName": "xToken",
  "abi": [
    {
      "constant": true,
      "inputs": [],
      "name": "name",
      "outputs": [
        {
          "name": "",
          "type": "string"
        }
      ],
      "payable": false,
      "stateMutability": "view",
      "type": "function",
      "signature": "0x06fdde03"
    },
    {
      "constant": true,
      "inputs": [],
      "name": "totalSupply",
      "outputs": [
        {
          "name": "",
          "type": "uint256"
        }
      ],
      "payable": false,
      "stateMutability": "view",
      "type": "function",
      "signature": "0x18160ddd"
    },
    {
      "constant": true,
      "inputs": [],
      "name": "decimals",
      "outputs": [
        {
          "name": "",
          "type": "uint8"
        }
      ],
      "payable": false,
      "stateMutability": "view",
      "type": "function",
      "signature": "0x313ce567"
    },
    {
      "constant": true,
      "inputs": [],
      "name": "standard",
      "outputs": [
        {
          "name": "",
          "type": "string"
        }
      ],
      "payable": false,
      "stateMutability": "view",
      "type": "function",
      "signature": "0x5a3b7e42"
    },
    {
      "constant": true,
      "inputs": [
        {
          "name": "",
          "type": "address"
        }
      ],
      "name": "balanceOf",
      "outputs": [
        {
          "name": "",
          "type": "uint256"
        }
      ],
      "payable": false,
      "stateMutability": "view",
      "type": "function",
      "signature": "0x70a08231"
    },
    {
      "constant": true,
      "inputs": [],
      "name": "owner",
      "outputs": [
        {
          "name": "",
          "type": "address"
        }
      ],
      "payable": false,
      "stateMutability": "view",
      "type": "function",
      "signature": "0x8da5cb5b"
    },
    {
      "constant": true,
      "inputs": [],
      "name": "symbol",
      "outputs": [
        {
          "name": "",
          "type": "string"
        }
      ],
      "payable": false,
      "stateMutability": "view",
      "type": "function",
      "signature": "0x95d89b41"
    },
    {
      "constant": true,
      "inputs": [],
      "name": "creationTime",
      "outputs": [
        {
          "name": "",
          "type": "uint256"
        }
      ],
      "payable": false,
      "stateMutability": "view",
      "type": "function",
      "signature": "0xd8270dce"
    },
    {
      "constant": true,
      "inputs": [
        {
          "name": "",
          "type": "address"
        },
        {
          "name": "",
          "type": "address"
        }
      ],
      "name": "allowance",
      "outputs": [
        {
          "name": "",
          "type": "uint256"
        }
      ],
      "payable": false,
      "stateMutability": "view",
      "type": "function",
      "signature": "0xdd62ed3e"
    },
    {
      "inputs": [
        {
          "name": "_initialSupply",
          "type": "uint256"
        }
      ],
      "payable": false,
      "stateMutability": "nonpayable",
      "type": "constructor",
      "signature": "constructor"
    },
    {
      "anonymous": false,
      "inputs": [
        {
          "indexed": true,
          "name": "_from",
          "type": "address"
        },
        {
          "indexed": true,
          "name": "_to",
          "type": "address"
        },
        {
          "indexed": false,
          "name": "_value",
          "type": "uint256"
        }
      ],
      "name": "Transfer",
      "type": "event",
      "signature": "0xddf252ad1be2c89b69c2b068fc378daa952ba7f163c4a11628f55a4df523b3ef"
    },
    {
      "anonymous": false,
      "inputs": [
        {
          "indexed": true,
          "name": "_owner",
          "type": "address"
        },
        {
          "indexed": true,
          "name": "_spender",
          "type": "address"
        },
        {
          "indexed": false,
          "name": "_value",
          "type": "uint256"
        }
      ],
      "name": "Approval",
      "type": "event",
      "signature": "0x8c5be1e5ebec7d5bd14f71427d1e84f3dd0314c0f7b2291e5b200ac8c7c3b925"
    },
    {
      "constant": false,
      "inputs": [
        {
          "name": "_to",
          "type": "address"
        },
        {
          "name": "_value",
          "type": "uint256"
        }
      ],
      "name": "transfer",
      "outputs": [
        {
          "name": "success",
          "type": "bool"
        }
      ],
      "payable": false,
      "stateMutability": "nonpayable",
      "type": "function",
      "signature": "0xa9059cbb"
    },
    {
      "constant": false,
      "inputs": [
        {
          "name": "_spender",
          "type": "address"
        },
        {
          "name": "_value",
          "type": "uint256"
        }
      ],
      "name": "approve",
      "outputs": [
        {
          "name": "success",
          "type": "bool"
        }
      ],
      "payable": false,
      "stateMutability": "nonpayable",
      "type": "function",
      "signature": "0x095ea7b3"
    },
    {
      "constant": false,
      "inputs": [
        {
          "name": "_from",
          "type": "address"
        },
        {
          "name": "_to",
          "type": "address"
        },
        {
          "name": "_value",
          "type": "uint256"
        }
      ],
      "name": "transferFrom",
      "outputs": [
        {
          "name": "success",
          "type": "bool"
        }
      ],
      "payable": false,
      "stateMutability": "nonpayable",
      "type": "function",
      "signature": "0x23b872dd"
    }
  ],
  "bytecode": "0x60806040526040805190810160405280600d81526020017f5820416c70686120546f6b656e00000000000000000000000000000000000000815250600090805190602001906200005192919062000212565b506040805190810160405280600381526020017f58414c0000000000000000000000000000000000000000000000000000000000815250600190805190602001906200009f92919062000212565b506040805190810160405280600c81526020017f5820546f6b656e2076312e30000000000000000000000000000000000000000081525060029080519060200190620000ed92919062000212565b50348015620000fb57600080fd5b5060405160208062001358833981018060405260208110156200011d57600080fd5b81019080805190602001909291905050506012600460006101000a81548160ff021916908360ff160217905550600460009054906101000a900460ff1660ff16600a0a8102600660003373ffffffffffffffffffffffffffffffffffffffff1673ffffffffffffffffffffffffffffffffffffffff16815260200190815260200160002081905550600460009054906101000a900460ff1660ff16600a0a810260038190555033600460016101000a81548173ffffffffffffffffffffffffffffffffffffffff021916908373ffffffffffffffffffffffffffffffffffffffff1602179055504260058190555050620002c1565b828054600181600116156101000203166002900490600052602060002090601f016020900481019282601f106200025557805160ff191683800117855562000286565b8280016001018555821562000286579182015b828111156200028557825182559160200191906001019062000268565b5b50905062000295919062000299565b5090565b620002be91905b80821115620002ba576000816000905550600101620002a0565b5090565b90565b61108780620002d16000396000f3fe6080604052600436106100ba576000357c0100000000000000000000000000000000000000000000000000000000900463ffffffff16806306fdde03146100bf578063095ea7b31461014f57806318160ddd146101c257806323b872dd146101ed578063313ce567146102805780635a3b7e42146102b157806370a08231146103415780638da5cb5b146103a657806395d89b41146103fd578063a9059cbb1461048d578063d8270dce14610500578063dd62ed3e1461052b575b600080fd5b3480156100cb57600080fd5b506100d46105b0565b6040518080602001828103825283818151815260200191508051906020019080838360005b838110156101145780820151818401526020810190506100f9565b50505050905090810190601f1680156101415780820380516001836020036101000a031916815260200191505b509250505060405180910390f35b34801561015b57600080fd5b506101a86004803603604081101561017257600080fd5b81019080803573ffffffffffffffffffffffffffffffffffffffff1690602001909291908035906020019092919050505061064e565b604051808215151515815260200191505060405180910390f35b3480156101ce57600080fd5b506101d7610740565b6040518082815260200191505060405180910390f35b3480156101f957600080fd5b506102666004803603606081101561021057600080fd5b81019080803573ffffffffffffffffffffffffffffffffffffffff169060200190929190803573ffffffffffffffffffffffffffffffffffffffff16906020019092919080359060200190929190505050610746565b604051808215151515815260200191505060405180910390f35b34801561028c57600080fd5b50610295610be8565b604051808260ff1660ff16815260200191505060405180910390f35b3480156102bd57600080fd5b506102c6610bfb565b6040518080602001828103825283818151815260200191508051906020019080838360005b838110156103065780820151818401526020810190506102eb565b50505050905090810190601f1680156103335780820380516001836020036101000a031916815260200191505b509250505060405180910390f35b34801561034d57600080fd5b506103906004803603602081101561036457600080fd5b81019080803573ffffffffffffffffffffffffffffffffffffffff169060200190929190505050610c99565b6040518082815260200191505060405180910390f35b3480156103b257600080fd5b506103bb610cb1565b604051808273ffffffffffffffffffffffffffffffffffffffff1673ffffffffffffffffffffffffffffffffffffffff16815260200191505060405180910390f35b34801561040957600080fd5b50610412610cd7565b6040518080602001828103825283818151815260200191508051906020019080838360005b83811015610452578082015181840152602081019050610437565b50505050905090810190601f16801561047f5780820380516001836020036101000a031916815260200191505b509250505060405180910390f35b34801561049957600080fd5b506104e6600480360360408110156104b057600080fd5b81019080803573ffffffffffffffffffffffffffffffffffffffff16906020019092919080359060200190929190505050610d75565b604051808215151515815260200191505060405180910390f35b34801561050c57600080fd5b50610515610fed565b6040518082815260200191505060405180910390f35b34801561053757600080fd5b5061059a6004803603604081101561054e57600080fd5b81019080803573ffffffffffffffffffffffffffffffffffffffff169060200190929190803573ffffffffffffffffffffffffffffffffffffffff169060200190929190505050610ff3565b6040518082815260200191505060405180910390f35b60008054600181600116156101000203166002900480601f0160208091040260200160405190810160405280929190818152602001828054600181600116156101000203166002900480156106465780601f1061061b57610100808354040283529160200191610646565b820191906000526020600020905b81548152906001019060200180831161062957829003601f168201915b505050505081565b600081600760003373ffffffffffffffffffffffffffffffffffffffff1673ffffffffffffffffffffffffffffffffffffffff16815260200190815260200160002060008573ffffffffffffffffffffffffffffffffffffffff1673ffffffffffffffffffffffffffffffffffffffff168152602001908152602001600020819055508273ffffffffffffffffffffffffffffffffffffffff163373ffffffffffffffffffffffffffffffffffffffff167f8c5be1e5ebec7d5bd14f71427d1e84f3dd0314c0f7b2291e5b200ac8c7c3b925846040518082815260200191505060405180910390a36001905092915050565b60035481565b6000600660008573ffffffffffffffffffffffffffffffffffffffff1673ffffffffffffffffffffffffffffffffffffffff168152602001908152602001600020548211151515610825576040517f08c379a000000000000000000000000000000000000000000000000000000000815260040180806020018281038252602d8152602001807f76616c7565206265696e67207472616e736665726564206973206c617267657281526020017f207468616e2062616c616e63650000000000000000000000000000000000000081525060400191505060405180910390fd5b600760008573ffffffffffffffffffffffffffffffffffffffff1673ffffffffffffffffffffffffffffffffffffffff16815260200190815260200160002060003373ffffffffffffffffffffffffffffffffffffffff1673ffffffffffffffffffffffffffffffffffffffff16815260200190815260200160002054821115151561093f576040517f08c379a000000000000000000000000000000000000000000000000000000000815260040180806020018281038252602a8152602001807f76616c7565206265696e67207370656e74206973206c6172676572207468616e81526020017f20616c6c6f77616e63650000000000000000000000000000000000000000000081525060400191505060405180910390fd5b61099182600660008773ffffffffffffffffffffffffffffffffffffffff1673ffffffffffffffffffffffffffffffffffffffff1681526020019081526020016000205461101890919063ffffffff16565b600660008673ffffffffffffffffffffffffffffffffffffffff1673ffffffffffffffffffffffffffffffffffffffff16815260200190815260200160002081905550610a2682600660008673ffffffffffffffffffffffffffffffffffffffff1673ffffffffffffffffffffffffffffffffffffffff1681526020019081526020016000205461103a90919063ffffffff16565b600660008573ffffffffffffffffffffffffffffffffffffffff1673ffffffffffffffffffffffffffffffffffffffff16815260200190815260200160002081905550610af882600760008773ffffffffffffffffffffffffffffffffffffffff1673ffffffffffffffffffffffffffffffffffffffff16815260200190815260200160002060003373ffffffffffffffffffffffffffffffffffffffff1673ffffffffffffffffffffffffffffffffffffffff1681526020019081526020016000205461101890919063ffffffff16565b600760008673ffffffffffffffffffffffffffffffffffffffff1673ffffffffffffffffffffffffffffffffffffffff16815260200190815260200160002060003373ffffffffffffffffffffffffffffffffffffffff1673ffffffffffffffffffffffffffffffffffffffff168152602001908152602001600020819055508273ffffffffffffffffffffffffffffffffffffffff168473ffffffffffffffffffffffffffffffffffffffff167fddf252ad1be2c89b69c2b068fc378daa952ba7f163c4a11628f55a4df523b3ef846040518082815260200191505060405180910390a3600190509392505050565b600460009054906101000a900460ff1681565b60028054600181600116156101000203166002900480601f016020809104026020016040519081016040528092919081815260200182805460018160011615610100020316600290048015610c915780601f10610c6657610100808354040283529160200191610c91565b820191906000526020600020905b815481529060010190602001808311610c7457829003601f168201915b505050505081565b60066020528060005260406000206000915090505481565b600460019054906101000a900473ffffffffffffffffffffffffffffffffffffffff1681565b60018054600181600116156101000203166002900480601f016020809104026020016040519081016040528092919081815260200182805460018160011615610100020316600290048015610d6d5780601f10610d4257610100808354040283529160200191610d6d565b820191906000526020600020905b815481529060010190602001808311610d5057829003601f168201915b505050505081565b600081600660003373ffffffffffffffffffffffffffffffffffffffff1673ffffffffffffffffffffffffffffffffffffffff1681526020019081526020016000205410151515610e54576040517f08c379a000000000000000000000000000000000000000000000000000000000815260040180806020018281038252602d8152602001807f62616c616e6365206973206c6f776572207468616e2076616c756520746f206281526020017f65207472616e736665727265640000000000000000000000000000000000000081525060400191505060405180910390fd5b610ea682600660003373ffffffffffffffffffffffffffffffffffffffff1673ffffffffffffffffffffffffffffffffffffffff1681526020019081526020016000205461101890919063ffffffff16565b600660003373ffffffffffffffffffffffffffffffffffffffff1673ffffffffffffffffffffffffffffffffffffffff16815260200190815260200160002081905550610f3b82600660008673ffffffffffffffffffffffffffffffffffffffff1673ffffffffffffffffffffffffffffffffffffffff1681526020019081526020016000205461103a90919063ffffffff16565b600660008573ffffffffffffffffffffffffffffffffffffffff1673ffffffffffffffffffffffffffffffffffffffff168152602001908152602001600020819055508273ffffffffffffffffffffffffffffffffffffffff163373ffffffffffffffffffffffffffffffffffffffff167fddf252ad1be2c89b69c2b068fc378daa952ba7f163c4a11628f55a4df523b3ef846040518082815260200191505060405180910390a36001905092915050565b60055481565b6007602052816000526040600020602052806000526040600020600091509150505481565b600082821115151561102957600080fd5b600082840390508091505092915050565b600080828401905083811015151561105157600080fd5b809150509291505056fea165627a7a72305820e12f5cca09fafc87100b4e1ee3c754b950f62d7209b2fa6116903fa57d7d8b5a0029",
  "source": "pragma solidity ^0.5.0;\r\n\r\n/**\r\n@dev Contract for the 'X Alpha Token'\r\nUsed as a token for all services by Variable Labs.\r\nCompliant with the ERC20 standards. https://eips.ethereum.org/EIPS/eip-20\r\n@author https://github.com/parthvshah\r\n*/\r\n\r\n/**\r\n * @title SafeMath\r\n * @dev Math operations with safety checks that throw on error\r\n */\r\nlibrary SafeMath {\r\n  /**\r\n  * @dev Subtracts two numbers, throws on overflow (i.e. if subtrahend is greater than minuend).\r\n  */\r\n  function sub(uint256 a, uint256 b) internal pure returns (uint256) {\r\n    require(b <= a);\r\n    uint256 c = a - b;\r\n    return c;\r\n  }\r\n\r\n  /**\r\n  * @dev Adds two numbers, throws on overflow.\r\n  */\r\n  function add(uint256 a, uint256 b) internal pure returns (uint256) {\r\n    uint256 c = a + b;\r\n    require(c >= a);\r\n    return c;\r\n  }\r\n}\r\n\r\ncontract xToken{\r\n    using SafeMath for uint256;\r\n    /**\r\n    @dev Specifics of the token\r\n    Consists of the name, symbol, standard, totalSupply and decimals of the token.\r\n    Accessible via getter functions.\r\n    */\r\n    string public name = \"X Alpha Token\";\r\n    string public symbol = \"XAL\";\r\n    string public standard = \"X Token v1.0\";\r\n    uint256 public totalSupply;\r\n    uint8 public decimals;\r\n\r\n    /**\r\n    @dev Owner and creation time\r\n    The address of the owner is stored with the time of creation of the contract.\r\n    */\r\n    address payable public owner;\r\n    uint public creationTime;\r\n\r\n    /**\r\n    @dev Event for a transfer\r\n    _from and _to with the _value are emitted.\r\n    */\r\n    event Transfer(\r\n        address indexed _from,\r\n        address indexed _to,\r\n        uint256 _value\r\n    );\r\n\r\n    /**\r\n    @dev Event for an Approval\r\n    _owner and _spender with the _value are emitted.\r\n    */\r\n    event Approval(\r\n        address indexed _owner,\r\n        address indexed _spender,\r\n        uint256 _value\r\n    );\r\n\r\n    /**\r\n    @dev Store for balances and allowances\r\n    Mappings to track each users' balance and allowance \r\n    */\r\n    mapping(address => uint256) public balanceOf;\r\n    mapping(address => mapping(address => uint256)) public allowance;\r\n\r\n    /**\r\n    @dev Constructor for the contract\r\n    @param _initialSupply Assigns the initial supply to the owner of the contract. Sets the totalSupply to the initialSupply.\r\n    Sets the decimals, owner and creationTime parameters. \r\n    */\r\n    constructor(uint256 _initialSupply) public {\r\n        decimals = 18;\r\n        balanceOf[msg.sender] = _initialSupply * 10 ** uint256(decimals);\r\n        totalSupply = _initialSupply * 10 ** uint256(decimals);\r\n        owner = msg.sender;\r\n        creationTime = now;\r\n    }\r\n\r\n    /**\r\n    @dev Function to transfer funds from the owner to an account\r\n    @param _to @param _value @return success\r\n    Function to transfer specified number of tokenss from the owner to a specified address.\r\n    Changes the balances of both accounts and emits a 'Transfer' event. \r\n    */\r\n    function transfer(address _to, uint256 _value) public returns(bool success){\r\n        require(balanceOf[msg.sender] >= _value, \"balance is lower than value to be transferred\");\r\n        balanceOf[msg.sender] = balanceOf[msg.sender].sub(_value);\r\n        balanceOf[_to] = balanceOf[_to].add(_value);\r\n        emit Transfer(msg.sender, _to, _value);\r\n        return true;\r\n    }\r\n\r\n    /**\r\n    @dev Function to approve an address to spend some tokens\r\n    @param _spender @param _value @return success\r\n    Function changes the allowance limit of a specified address by a fixed value. \r\n    Emits an 'Approval' event.\r\n    */\r\n    function approve(address _spender, uint256 _value) public returns(bool success){\r\n        allowance[msg.sender][_spender] = _value;\r\n        emit Approval(msg.sender, _spender, _value);\r\n        return true;\r\n    }\r\n\r\n    /**\r\n    @dev Function to transfer funds from the owner to an account\r\n    @param _from @param _to @param _value @return success\r\n    Function to transfer specified number of tokenss from the owner to a specified address.\r\n    Requires the value to be lesser than the balance of the sender, allowance limit of the sender.\r\n    Changes the balances of both accounts, changes the allowance limit and emits a 'Transfer' event. \r\n    */\r\n    function transferFrom(address _from, address _to, uint256 _value) public returns(bool success){\r\n        require(_value <= balanceOf[_from], \"value being transfered is larger than balance\");\r\n        require(_value <= allowance[_from][msg.sender], \"value being spent is larger than allowance\");\r\n\r\n        balanceOf[_from] = balanceOf[_from].sub(_value);\r\n        balanceOf[_to] = balanceOf[_to].add(_value);\r\n\r\n        allowance[_from][msg.sender] = allowance[_from][msg.sender].sub(_value);\r\n\r\n        emit Transfer(_from, _to, _value);\r\n        return true;\r\n    }\r\n}",
  "sourcePath": "C:/Users/parth/Documents/VariableLabs/x/contracts/xToken.sol",
  "compiler": {
    "name": "solc",
    "version": "0.5.0+commit.1d4f565a.Emscripten.clang"
  },
  "schemaVersion": "3.0.1",
  "updatedAt": "2019-03-06T06:42:22.491Z",
  "devdoc": {
    "methods": {
      "approve(address,uint256)": {
        "details": "Function to approve an address to spend some tokens\r",
        "params": {
          "_spender": "@param _value @return success\r Function changes the allowance limit of a specified address by a fixed value. \r Emits an 'Approval' event.\r"
        }
      },
      "constructor": {
        "details": "Constructor for the contract\r",
        "params": {
          "_initialSupply": "Assigns the initial supply to the owner of the contract. Sets the totalSupply to the initialSupply.\r Sets the decimals, owner and creationTime parameters. \r"
        }
      },
      "transfer(address,uint256)": {
        "details": "Function to transfer funds from the owner to an account\r",
        "params": {
          "_to": "@param _value @return success\r Function to transfer specified number of tokenss from the owner to a specified address.\r Changes the balances of both accounts and emits a 'Transfer' event. \r"
        }
      },
      "transferFrom(address,address,uint256)": {
        "details": "Function to transfer funds from the owner to an account\r",
        "params": {
          "_from": "@param _to @param _value @return success\r Function to transfer specified number of tokenss from the owner to a specified address.\r Requires the value to be lesser than the balance of the sender, allowance limit of the sender.\r Changes the balances of both accounts, changes the allowance limit and emits a 'Transfer' event. \r"
        }
      }
    }
  },
  "userdoc": {
    "methods": {}
  }
}